{
  "contractName": "Basic",
  "abi": [
    {
      "constant": true,
      "inputs": [],
      "name": "x",
      "outputs": [
        {
          "name": "",
          "type": "uint256"
        }
      ],
      "payable": false,
      "stateMutability": "view",
      "type": "function",
      "signature": "0x0c55699c"
    },
    {
      "constant": true,
      "inputs": [],
      "name": "getX",
      "outputs": [
        {
          "name": "",
          "type": "uint256"
        }
      ],
      "payable": false,
      "stateMutability": "view",
      "type": "function",
      "signature": "0x5197c7aa"
    },
    {
      "constant": false,
      "inputs": [
        {
          "name": "_x",
          "type": "uint256"
        }
      ],
      "name": "setX",
      "outputs": [],
      "payable": false,
      "stateMutability": "nonpayable",
      "type": "function",
      "signature": "0x4018d9aa"
    }
  ],
  "bytecode": "0x60806040526000805534801561001457600080fd5b50610124806100246000396000f3fe6080604052600436106053576000357c0100000000000000000000000000000000000000000000000000000000900463ffffffff1680630c55699c1460585780634018d9aa1460805780635197c7aa1460b7575b600080fd5b348015606357600080fd5b50606a60df565b6040518082815260200191505060405180910390f35b348015608b57600080fd5b5060b56004803603602081101560a057600080fd5b810190808035906020019092919050505060e5565b005b34801560c257600080fd5b5060c960ef565b6040518082815260200191505060405180910390f35b60005481565b8060008190555050565b6000805490509056fea165627a7a72305820568fa84669cf80028aad6bb936bf9553f099b76b0538c44da493627105083e670029",
  "source": "pragma solidity ^0.5.0;\r\n\r\ncontract Basic {\r\n    uint public x = 0;\r\n\r\n    function getX() public view returns(uint) {\r\n        return x;\r\n    }\r\n\r\n    function setX(uint _x) public {\r\n        x = _x;\r\n    }\r\n}",
  "sourcePath": "C:/Users/shiva/Downloads/DApp-1/src/contracts/Basic.sol",
  "compiler": {
    "name": "solc",
    "version": "0.5.0+commit.1d4f565a.Emscripten.clang"
  },
  "schemaVersion": "3.0.2",
  "updatedAt": "2022-04-03T19:29:58.270Z",
  "devdoc": {
    "methods": {}
  },
  "userdoc": {
    "methods": {}
  }
}